{
  "contractName": "LockerManagerV2",
  "abi": [
    {
      "inputs": [
        {
          "internalType": "uint256",
          "name": "_initialPricePerBlock",
          "type": "uint256"
        }
      ],
      "stateMutability": "nonpayable",
      "type": "constructor"
    },
    {
      "inputs": [
        {
          "internalType": "string",
          "name": "useInstead",
          "type": "string"
        }
      ],
      "name": "DeprecatedFunction",
      "type": "error"
    },
    {
      "anonymous": false,
      "inputs": [
        {
          "indexed": true,
          "internalType": "address",
          "name": "previousOwner",
          "type": "address"
        },
        {
          "indexed": true,
          "internalType": "address",
          "name": "newOwner",
          "type": "address"
        }
      ],
      "name": "OwnershipTransferred",
      "type": "event"
    },
    {
      "anonymous": false,
      "inputs": [
        {
          "indexed": true,
          "internalType": "bytes16",
          "name": "lockerId",
          "type": "bytes16"
        },
        {
          "indexed": true,
          "internalType": "address",
          "name": "closer",
          "type": "address"
        }
      ],
      "name": "lockerClosed",
      "type": "event"
    },
    {
      "anonymous": false,
      "inputs": [
        {
          "indexed": true,
          "internalType": "bytes16",
          "name": "lockerId",
          "type": "bytes16"
        },
        {
          "indexed": true,
          "internalType": "address",
          "name": "opener",
          "type": "address"
        }
      ],
      "name": "lockerOpened",
      "type": "event"
    },
    {
      "inputs": [
        {
          "internalType": "bytes16",
          "name": "_id",
          "type": "bytes16"
        }
      ],
      "name": "isLockerClosed",
      "outputs": [
        {
          "internalType": "bool",
          "name": "",
          "type": "bool"
        }
      ],
      "stateMutability": "view",
      "type": "function"
    },
    {
      "inputs": [
        {
          "internalType": "bytes16",
          "name": "_id",
          "type": "bytes16"
        }
      ],
      "name": "openLocker",
      "outputs": [],
      "stateMutability": "nonpayable",
      "type": "function"
    },
    {
      "inputs": [],
      "name": "owner",
      "outputs": [
        {
          "internalType": "address",
          "name": "",
          "type": "address"
        }
      ],
      "stateMutability": "view",
      "type": "function"
    },
    {
      "inputs": [],
      "name": "renounceOwnership",
      "outputs": [],
      "stateMutability": "nonpayable",
      "type": "function"
    },
    {
      "inputs": [
        {
          "internalType": "address payable",
          "name": "_to",
          "type": "address"
        },
        {
          "internalType": "uint256",
          "name": "_amount",
          "type": "uint256"
        }
      ],
      "name": "transfer",
      "outputs": [],
      "stateMutability": "nonpayable",
      "type": "function"
    },
    {
      "inputs": [
        {
          "internalType": "address",
          "name": "newOwner",
          "type": "address"
        }
      ],
      "name": "transferOwnership",
      "outputs": [],
      "stateMutability": "nonpayable",
      "type": "function"
    },
    {
      "inputs": [],
      "name": "withdraw",
      "outputs": [],
      "stateMutability": "nonpayable",
      "type": "function"
    },
    {
      "stateMutability": "payable",
      "type": "receive"
    },
    {
      "inputs": [],
      "name": "getCurrentPricePerBlock",
      "outputs": [
        {
          "internalType": "uint256",
          "name": "",
          "type": "uint256"
        }
      ],
      "stateMutability": "view",
      "type": "function"
    },
    {
      "inputs": [
        {
          "internalType": "uint256",
          "name": "_currentPrice",
          "type": "uint256"
        }
      ],
      "name": "setCurrentPricePerBlock",
      "outputs": [],
      "stateMutability": "nonpayable",
      "type": "function"
    },
    {
      "inputs": [
        {
          "internalType": "bytes16",
          "name": "",
          "type": "bytes16"
        }
      ],
      "name": "closeLocker",
      "outputs": [],
      "stateMutability": "nonpayable",
      "type": "function"
    },
    {
      "inputs": [
        {
          "internalType": "bytes16",
          "name": "_id",
          "type": "bytes16"
        },
        {
          "internalType": "uint256",
          "name": "_numberOfBlocks",
          "type": "uint256"
        }
      ],
      "name": "closeLockerFor",
      "outputs": [],
      "stateMutability": "payable",
      "type": "function"
    },
    {
      "inputs": [
        {
          "internalType": "bytes16",
          "name": "_id",
          "type": "bytes16"
        },
        {
          "internalType": "uint256",
          "name": "_numberOfBlocks",
          "type": "uint256"
        }
      ],
      "name": "increaseRemainingBlocks",
      "outputs": [],
      "stateMutability": "payable",
      "type": "function"
    },
    {
      "inputs": [
        {
          "internalType": "bytes12",
          "name": "_id",
          "type": "bytes12"
        },
        {
          "internalType": "address",
          "name": "_to",
          "type": "address"
        }
      ],
      "name": "transferLocker",
      "outputs": [],
      "stateMutability": "nonpayable",
      "type": "function"
    },
    {
      "inputs": [
        {
          "internalType": "bytes16",
          "name": "_id",
          "type": "bytes16"
        }
      ],
      "name": "isLockerFree",
      "outputs": [
        {
          "internalType": "bool",
          "name": "",
          "type": "bool"
        }
      ],
      "stateMutability": "view",
      "type": "function"
    },
    {
      "inputs": [
        {
          "internalType": "bytes16",
          "name": "_id",
          "type": "bytes16"
        }
      ],
      "name": "getRemainingBlocks",
      "outputs": [
        {
          "internalType": "uint256",
          "name": "",
          "type": "uint256"
        }
      ],
      "stateMutability": "view",
      "type": "function"
    }
  ],
  "bytecode": "0x60806040523480156200001157600080fd5b5060405162001c0638038062001c06833981810160405281019062000037919062000171565b620000576200004b6200006560201b60201c565b6200006d60201b60201c565b8060028190555050620001a3565b600033905090565b60008060009054906101000a900473ffffffffffffffffffffffffffffffffffffffff169050816000806101000a81548173ffffffffffffffffffffffffffffffffffffffff021916908373ffffffffffffffffffffffffffffffffffffffff1602179055508173ffffffffffffffffffffffffffffffffffffffff168173ffffffffffffffffffffffffffffffffffffffff167f8be0079c531659141344cd1fd0a4f28419497f9722a3daafe3b4186f6b6457e060405160405180910390a35050565b600080fd5b6000819050919050565b6200014b8162000136565b81146200015757600080fd5b50565b6000815190506200016b8162000140565b92915050565b6000602082840312156200018a576200018962000131565b5b60006200019a848285016200015a565b91505092915050565b611a5380620001b36000396000f3fe6080604052600436106100ec5760003560e01c8063a9ff819c1161008a578063eed9f1c611610059578063eed9f1c614610293578063f2fde38b146102d0578063ff72eb85146102f9578063ff8a071814610324576100f3565b8063a9ff819c146101fc578063ad79f12714610218578063b662ee2014610241578063db29c6991461026a576100f3565b8063715018a6116100c6578063715018a6146101685780637b5d05bb1461017f5780638da5cb5b146101a8578063a9059cbb146101d3576100f3565b80633ccfd60b146100f85780633fb08e041461010f5780635e3a836e1461012b576100f3565b366100f357005b600080fd5b34801561010457600080fd5b5061010d610361565b005b610129600480360381019061012491906111fc565b610499565b005b34801561013757600080fd5b50610152600480360381019061014d919061123c565b610609565b60405161015f9190611284565b60405180910390f35b34801561017457600080fd5b5061017d61069e565b005b34801561018b57600080fd5b506101a660048036038101906101a19190611355565b610726565b005b3480156101b457600080fd5b506101bd6108c1565b6040516101ca91906113a4565b60405180910390f35b3480156101df57600080fd5b506101fa60048036038101906101f591906113fd565b6108ea565b005b610216600480360381019061021191906111fc565b610a17565b005b34801561022457600080fd5b5061023f600480360381019061023a919061123c565b610bd2565b005b34801561024d57600080fd5b506102686004803603810190610263919061143d565b610c0d565b005b34801561027657600080fd5b50610291600480360381019061028c919061123c565b610c93565b005b34801561029f57600080fd5b506102ba60048036038101906102b5919061123c565b610e22565b6040516102c79190611284565b60405180910390f35b3480156102dc57600080fd5b506102f760048036038101906102f2919061146a565b610efc565b005b34801561030557600080fd5b5061030e610ff4565b60405161031b91906114a6565b60405180910390f35b34801561033057600080fd5b5061034b6004803603810190610346919061123c565b610ffe565b60405161035891906114a6565b60405180910390f35b61036961109d565b73ffffffffffffffffffffffffffffffffffffffff166103876108c1565b73ffffffffffffffffffffffffffffffffffffffff16146103dd576040517f08c379a00000000000000000000000000000000000000000000000000000000081526004016103d49061151e565b60405180910390fd5b600047905060006103ec6108c1565b73ffffffffffffffffffffffffffffffffffffffff168260405161040f9061156f565b60006040518083038185875af1925050503d806000811461044c576040519150601f19603f3d011682016040523d82523d6000602084013e610451565b606091505b5050905080610495576040517f08c379a000000000000000000000000000000000000000000000000000000000815260040161048c906115d0565b60405180910390fd5b5050565b3373ffffffffffffffffffffffffffffffffffffffff1660016000846fffffffffffffffffffffffffffffffff19166fffffffffffffffffffffffffffffffff1916815260200190815260200160002060000160009054906101000a900473ffffffffffffffffffffffffffffffffffffffff1673ffffffffffffffffffffffffffffffffffffffff1614610563576040517f08c379a000000000000000000000000000000000000000000000000000000000815260040161055a9061163c565b60405180910390fd5b60025481610571919061168b565b34146105b2576040517f08c379a00000000000000000000000000000000000000000000000000000000081526004016105a990611731565b60405180910390fd5b8060016000846fffffffffffffffffffffffffffffffff19166fffffffffffffffffffffffffffffffff1916815260200190815260200160002060010160008282546105fe9190611751565b925050819055505050565b60008073ffffffffffffffffffffffffffffffffffffffff1660016000846fffffffffffffffffffffffffffffffff19166fffffffffffffffffffffffffffffffff1916815260200190815260200160002060000160009054906101000a900473ffffffffffffffffffffffffffffffffffffffff1673ffffffffffffffffffffffffffffffffffffffff1614159050919050565b6106a661109d565b73ffffffffffffffffffffffffffffffffffffffff166106c46108c1565b73ffffffffffffffffffffffffffffffffffffffff161461071a576040517f08c379a00000000000000000000000000000000000000000000000000000000081526004016107119061151e565b60405180910390fd5b61072460006110a5565b565b3373ffffffffffffffffffffffffffffffffffffffff16600160008473ffffffffffffffffffffffffffffffffffffffff19166fffffffffffffffffffffffffffffffff1916815260200190815260200160002060000160009054906101000a900473ffffffffffffffffffffffffffffffffffffffff1673ffffffffffffffffffffffffffffffffffffffff1614806107ff575043600160008473ffffffffffffffffffffffffffffffffffffffff19166fffffffffffffffffffffffffffffffff1916815260200190815260200160002060010154105b61083e576040517f08c379a0000000000000000000000000000000000000000000000000000000008152600401610835906117f3565b60405180910390fd5b80600160008473ffffffffffffffffffffffffffffffffffffffff19166fffffffffffffffffffffffffffffffff1916815260200190815260200160002060000160006101000a81548173ffffffffffffffffffffffffffffffffffffffff021916908373ffffffffffffffffffffffffffffffffffffffff1602179055505050565b60008060009054906101000a900473ffffffffffffffffffffffffffffffffffffffff16905090565b6108f261109d565b73ffffffffffffffffffffffffffffffffffffffff166109106108c1565b73ffffffffffffffffffffffffffffffffffffffff1614610966576040517f08c379a000000000000000000000000000000000000000000000000000000000815260040161095d9061151e565b60405180910390fd5b60008273ffffffffffffffffffffffffffffffffffffffff168260405161098c9061156f565b60006040518083038185875af1925050503d80600081146109c9576040519150601f19603f3d011682016040523d82523d6000602084013e6109ce565b606091505b5050905080610a12576040517f08c379a0000000000000000000000000000000000000000000000000000000008152600401610a099061185f565b60405180910390fd5b505050565b610a2082610e22565b610a5f576040517f08c379a0000000000000000000000000000000000000000000000000000000008152600401610a56906118cb565b60405180910390fd5b60025481610a6d919061168b565b3414610aae576040517f08c379a0000000000000000000000000000000000000000000000000000000008152600401610aa590611731565b60405180910390fd5b600060405180604001604052803373ffffffffffffffffffffffffffffffffffffffff1681526020018343610ae39190611751565b81525090508060016000856fffffffffffffffffffffffffffffffff19166fffffffffffffffffffffffffffffffff1916815260200190815260200160002060008201518160000160006101000a81548173ffffffffffffffffffffffffffffffffffffffff021916908373ffffffffffffffffffffffffffffffffffffffff160217905550602082015181600101559050503373ffffffffffffffffffffffffffffffffffffffff16836fffffffffffffffffffffffffffffffff19167f3996f03cb3d86f58dddfb979fe7f452a7b40a19b8e6a3e30bc5da0eef35dc41e60405160405180910390a3505050565b6040517fad6a8379000000000000000000000000000000000000000000000000000000008152600401610c0490611937565b60405180910390fd5b610c1561109d565b73ffffffffffffffffffffffffffffffffffffffff16610c336108c1565b73ffffffffffffffffffffffffffffffffffffffff1614610c89576040517f08c379a0000000000000000000000000000000000000000000000000000000008152600401610c809061151e565b60405180910390fd5b8060028190555050565b3373ffffffffffffffffffffffffffffffffffffffff1660016000836fffffffffffffffffffffffffffffffff19166fffffffffffffffffffffffffffffffff1916815260200190815260200160002060000160009054906101000a900473ffffffffffffffffffffffffffffffffffffffff1673ffffffffffffffffffffffffffffffffffffffff1614610d5d576040517f08c379a0000000000000000000000000000000000000000000000000000000008152600401610d549061163c565b60405180910390fd5b60016000826fffffffffffffffffffffffffffffffff19166fffffffffffffffffffffffffffffffff19168152602001908152602001600020600080820160006101000a81549073ffffffffffffffffffffffffffffffffffffffff0219169055600182016000905550503373ffffffffffffffffffffffffffffffffffffffff16816fffffffffffffffffffffffffffffffff19167f9be99d9247dddc1ff2bdc90216e10d715ec32dfd804f39bd02b199a711f7a74260405160405180910390a350565b60008073ffffffffffffffffffffffffffffffffffffffff1660016000846fffffffffffffffffffffffffffffffff19166fffffffffffffffffffffffffffffffff1916815260200190815260200160002060000160009054906101000a900473ffffffffffffffffffffffffffffffffffffffff1673ffffffffffffffffffffffffffffffffffffffff161480610ef557504360016000846fffffffffffffffffffffffffffffffff19166fffffffffffffffffffffffffffffffff1916815260200190815260200160002060010154105b9050919050565b610f0461109d565b73ffffffffffffffffffffffffffffffffffffffff16610f226108c1565b73ffffffffffffffffffffffffffffffffffffffff1614610f78576040517f08c379a0000000000000000000000000000000000000000000000000000000008152600401610f6f9061151e565b60405180910390fd5b600073ffffffffffffffffffffffffffffffffffffffff168173ffffffffffffffffffffffffffffffffffffffff161415610fe8576040517f08c379a0000000000000000000000000000000000000000000000000000000008152600401610fdf906119c9565b60405180910390fd5b610ff1816110a5565b50565b6000600254905090565b60004360016000846fffffffffffffffffffffffffffffffff19166fffffffffffffffffffffffffffffffff19168152602001908152602001600020600101541115611093574360016000846fffffffffffffffffffffffffffffffff19166fffffffffffffffffffffffffffffffff191681526020019081526020016000206001015461108c91906119e9565b9050611098565b600090505b919050565b600033905090565b60008060009054906101000a900473ffffffffffffffffffffffffffffffffffffffff169050816000806101000a81548173ffffffffffffffffffffffffffffffffffffffff021916908373ffffffffffffffffffffffffffffffffffffffff1602179055508173ffffffffffffffffffffffffffffffffffffffff168173ffffffffffffffffffffffffffffffffffffffff167f8be0079c531659141344cd1fd0a4f28419497f9722a3daafe3b4186f6b6457e060405160405180910390a35050565b600080fd5b60007fffffffffffffffffffffffffffffffff0000000000000000000000000000000082169050919050565b6111a38161116e565b81146111ae57600080fd5b50565b6000813590506111c08161119a565b92915050565b6000819050919050565b6111d9816111c6565b81146111e457600080fd5b50565b6000813590506111f6816111d0565b92915050565b6000806040838503121561121357611212611169565b5b6000611221858286016111b1565b9250506020611232858286016111e7565b9150509250929050565b60006020828403121561125257611251611169565b5b6000611260848285016111b1565b91505092915050565b60008115159050919050565b61127e81611269565b82525050565b60006020820190506112996000830184611275565b92915050565b60007fffffffffffffffffffffffff000000000000000000000000000000000000000082169050919050565b6112d48161129f565b81146112df57600080fd5b50565b6000813590506112f1816112cb565b92915050565b600073ffffffffffffffffffffffffffffffffffffffff82169050919050565b6000611322826112f7565b9050919050565b61133281611317565b811461133d57600080fd5b50565b60008135905061134f81611329565b92915050565b6000806040838503121561136c5761136b611169565b5b600061137a858286016112e2565b925050602061138b85828601611340565b9150509250929050565b61139e81611317565b82525050565b60006020820190506113b96000830184611395565b92915050565b60006113ca826112f7565b9050919050565b6113da816113bf565b81146113e557600080fd5b50565b6000813590506113f7816113d1565b92915050565b6000806040838503121561141457611413611169565b5b6000611422858286016113e8565b9250506020611433858286016111e7565b9150509250929050565b60006020828403121561145357611452611169565b5b6000611461848285016111e7565b91505092915050565b6000602082840312156114805761147f611169565b5b600061148e84828501611340565b91505092915050565b6114a0816111c6565b82525050565b60006020820190506114bb6000830184611497565b92915050565b600082825260208201905092915050565b7f4f776e61626c653a2063616c6c6572206973206e6f7420746865206f776e6572600082015250565b60006115086020836114c1565b9150611513826114d2565b602082019050919050565b60006020820190508181036000830152611537816114fb565b9050919050565b600081905092915050565b50565b600061155960008361153e565b915061156482611549565b600082019050919050565b600061157a8261154c565b9150819050919050565b7f4661696c656420746f2077697468647261770000000000000000000000000000600082015250565b60006115ba6012836114c1565b91506115c582611584565b602082019050919050565b600060208201905081810360008301526115e9816115ad565b9050919050565b7f4c6f636b657220646f65736e27742062656c6f6e6720746f2061646472657373600082015250565b60006116266020836114c1565b9150611631826115f0565b602082019050919050565b6000602082019050818103600083015261165581611619565b9050919050565b7f4e487b7100000000000000000000000000000000000000000000000000000000600052601160045260246000fd5b6000611696826111c6565b91506116a1836111c6565b9250817fffffffffffffffffffffffffffffffffffffffffffffffffffffffffffffffff04831182151516156116da576116d961165c565b5b828202905092915050565b7f496e636f727265637420616d6f756e7400000000000000000000000000000000600082015250565b600061171b6010836114c1565b9150611726826116e5565b602082019050919050565b6000602082019050818103600083015261174a8161170e565b9050919050565b600061175c826111c6565b9150611767836111c6565b9250827fffffffffffffffffffffffffffffffffffffffffffffffffffffffffffffffff0382111561179c5761179b61165c565b5b828201905092915050565b7f43616e6e6f74206265207472616e736665727265640000000000000000000000600082015250565b60006117dd6015836114c1565b91506117e8826117a7565b602082019050919050565b6000602082019050818103600083015261180c816117d0565b9050919050565b7f4661696c656420746f207472616e736665720000000000000000000000000000600082015250565b60006118496012836114c1565b915061185482611813565b602082019050919050565b600060208201905081810360008301526118788161183c565b9050919050565b7f4c6f636b657220697320616c726561647920636c6f7365640000000000000000600082015250565b60006118b56018836114c1565b91506118c08261187f565b602082019050919050565b600060208201905081810360008301526118e4816118a8565b9050919050565b7f636c6f73654c6f636b6572466f72000000000000000000000000000000000000600082015250565b6000611921600e836114c1565b915061192c826118eb565b602082019050919050565b6000602082019050818103600083015261195081611914565b9050919050565b7f4f776e61626c653a206e6577206f776e657220697320746865207a65726f206160008201527f6464726573730000000000000000000000000000000000000000000000000000602082015250565b60006119b36026836114c1565b91506119be82611957565b604082019050919050565b600060208201905081810360008301526119e2816119a6565b9050919050565b60006119f4826111c6565b91506119ff836111c6565b925082821015611a1257611a1161165c565b5b82820390509291505056fea26469706673582212208897de5088e8afc843cb8d79032846f3b52d51354da14ecd4ebc2cb5c3a4792b64736f6c634300080a0033",
  "immutableReferences": {},
  "source": "// SPDX-License-Identifier: MIT\r\npragma solidity >=0.8.10 <0.9.0;\r\n\r\nimport {locker, DeprecatedFunction} from \"./LockerManagerV2Library.sol\";\r\nimport \"./LockerManagerV2Payable.sol\";\r\n\r\n//contract to manage locker states\r\ncontract LockerManagerV2 is LockerManagerV2Payable {\r\n    uint private _pricePerBlock;\r\n\r\n    constructor(uint _initialPricePerBlock){\r\n        //super constructors are called automatically\r\n        _pricePerBlock = _initialPricePerBlock;\r\n    }\r\n\r\n    //getter function for current price\r\n    function getCurrentPricePerBlock() view public returns (uint){\r\n        return _pricePerBlock;\r\n    }\r\n\r\n    //setter function for current price, only for Owner\r\n    function setCurrentPricePerBlock(uint _currentPrice) public onlyOwner {\r\n        _pricePerBlock = _currentPrice;\r\n    }\r\n\r\n    //function for closing lockers by id is deprecated\r\n    function closeLocker(bytes16 /* _id */) public virtual override {\r\n        revert DeprecatedFunction(\"closeLockerFor\");\r\n    }\r\n\r\n    //function to close the locker for a given amount of blocks\r\n    function closeLockerFor(bytes16 _id, uint _numberOfBlocks) public virtual payable {\r\n        //the locker must not be already locked\r\n        require(isLockerFree(_id), \"Locker is already closed\");\r\n        require(msg.value == _numberOfBlocks * _pricePerBlock, \"Incorrect amount\");\r\n        locker memory closedLocker = locker({allowedOpener : msg.sender, lockedUntilBlock : block.number + _numberOfBlocks});\r\n        lockerState[_id] = closedLocker;\r\n        emit lockerClosed(_id, msg.sender);\r\n    }\r\n\r\n    //function to increase the time that a locker is closed\r\n    function increaseRemainingBlocks(bytes16 _id, uint _numberOfBlocks) public virtual payable {\r\n        require(lockerState[_id].allowedOpener == msg.sender, \"Locker doesn't belong to address\");\r\n        require(msg.value == _numberOfBlocks * _pricePerBlock, \"Incorrect amount\");\r\n        lockerState[_id].lockedUntilBlock += _numberOfBlocks;\r\n    }\r\n\r\n    //function to transfer the locker to a given address\r\n    function transferLocker(bytes12 _id, address _to) public virtual {\r\n        //only the allowed opener's address is able to transfer, unless the payment expired\r\n        require(lockerState[_id].allowedOpener == msg.sender || lockerState[_id].lockedUntilBlock < block.number, \"Cannot be transferred\");\r\n        lockerState[_id].allowedOpener = _to;\r\n    }\r\n\r\n    //checks whether a locker is closed\r\n    function isLockerFree(bytes16 _id) view public virtual returns (bool){\r\n        return lockerState[_id].allowedOpener == address(0) || lockerState[_id].lockedUntilBlock < block.number;\r\n    }\r\n\r\n    //checks the amount of blocks remaining before expiration\r\n    function getRemainingBlocks(bytes16 _id) view public returns (uint){\r\n        if (lockerState[_id].lockedUntilBlock > block.number) {\r\n            return lockerState[_id].lockedUntilBlock - block.number;\r\n        } else {\r\n            return 0;\r\n        }\r\n    }\r\n}",
  "sourcePath": "D:\\git\\cas-blockchain\\contracts\\LockerManagerV2.sol",
  "compiler": {
    "name": "solc",
    "version": "0.8.10+commit.fc410830.Emscripten.clang"
  },
  "schemaVersion": "3.4.3",
  "updatedAt": "2021-12-06T23:03:28.749Z",
  "devdoc": {
    "kind": "dev",
    "methods": {
      "owner()": {
        "details": "Returns the address of the current owner."
      },
      "renounceOwnership()": {
        "details": "Leaves the contract without owner. It will not be possible to call `onlyOwner` functions anymore. Can only be called by the current owner. NOTE: Renouncing ownership will leave the contract without an owner, thereby removing any functionality that is only available to the owner."
      },
      "transferOwnership(address)": {
        "details": "Transfers ownership of the contract to a new account (`newOwner`). Can only be called by the current owner."
      }
    },
    "version": 1
  },
  "userdoc": {
    "kind": "user",
    "methods": {},
    "version": 1
  }
}