{
  "contractName": "LockerManagerV2Payable",
  "abi": [
    {
      "anonymous": false,
      "inputs": [
        {
          "indexed": true,
          "internalType": "address",
          "name": "previousOwner",
          "type": "address"
        },
        {
          "indexed": true,
          "internalType": "address",
          "name": "newOwner",
          "type": "address"
        }
      ],
      "name": "OwnershipTransferred",
      "type": "event"
    },
    {
      "anonymous": false,
      "inputs": [
        {
          "indexed": true,
          "internalType": "bytes16",
          "name": "lockerId",
          "type": "bytes16"
        },
        {
          "indexed": true,
          "internalType": "address",
          "name": "closer",
          "type": "address"
        }
      ],
      "name": "lockerClosed",
      "type": "event"
    },
    {
      "anonymous": false,
      "inputs": [
        {
          "indexed": true,
          "internalType": "bytes16",
          "name": "lockerId",
          "type": "bytes16"
        },
        {
          "indexed": true,
          "internalType": "address",
          "name": "opener",
          "type": "address"
        }
      ],
      "name": "lockerOpened",
      "type": "event"
    },
    {
      "inputs": [
        {
          "internalType": "bytes16",
          "name": "_id",
          "type": "bytes16"
        }
      ],
      "name": "closeLocker",
      "outputs": [],
      "stateMutability": "nonpayable",
      "type": "function"
    },
    {
      "inputs": [
        {
          "internalType": "bytes16",
          "name": "_id",
          "type": "bytes16"
        }
      ],
      "name": "isLockerClosed",
      "outputs": [
        {
          "internalType": "bool",
          "name": "",
          "type": "bool"
        }
      ],
      "stateMutability": "view",
      "type": "function"
    },
    {
      "inputs": [
        {
          "internalType": "bytes16",
          "name": "_id",
          "type": "bytes16"
        }
      ],
      "name": "openLocker",
      "outputs": [],
      "stateMutability": "nonpayable",
      "type": "function"
    },
    {
      "inputs": [],
      "name": "owner",
      "outputs": [
        {
          "internalType": "address",
          "name": "",
          "type": "address"
        }
      ],
      "stateMutability": "view",
      "type": "function"
    },
    {
      "inputs": [],
      "name": "renounceOwnership",
      "outputs": [],
      "stateMutability": "nonpayable",
      "type": "function"
    },
    {
      "inputs": [
        {
          "internalType": "address",
          "name": "newOwner",
          "type": "address"
        }
      ],
      "name": "transferOwnership",
      "outputs": [],
      "stateMutability": "nonpayable",
      "type": "function"
    },
    {
      "stateMutability": "payable",
      "type": "receive"
    },
    {
      "inputs": [],
      "name": "withdraw",
      "outputs": [],
      "stateMutability": "nonpayable",
      "type": "function"
    },
    {
      "inputs": [
        {
          "internalType": "address payable",
          "name": "_to",
          "type": "address"
        },
        {
          "internalType": "uint256",
          "name": "_amount",
          "type": "uint256"
        }
      ],
      "name": "transfer",
      "outputs": [],
      "stateMutability": "nonpayable",
      "type": "function"
    }
  ],
  "bytecode": "0x608060405234801561001057600080fd5b5061002d61002261003260201b60201c565b61003a60201b60201c565b6100fe565b600033905090565b60008060009054906101000a900473ffffffffffffffffffffffffffffffffffffffff169050816000806101000a81548173ffffffffffffffffffffffffffffffffffffffff021916908373ffffffffffffffffffffffffffffffffffffffff1602179055508173ffffffffffffffffffffffffffffffffffffffff168173ffffffffffffffffffffffffffffffffffffffff167f8be0079c531659141344cd1fd0a4f28419497f9722a3daafe3b4186f6b6457e060405160405180910390a35050565b610fc78061010d6000396000f3fe60806040526004361061007f5760003560e01c8063a9059cbb1161004e578063a9059cbb14610121578063ad79f1271461014a578063db29c69914610173578063f2fde38b1461019c57610086565b80633ccfd60b1461008b5780635e3a836e146100a2578063715018a6146100df5780638da5cb5b146100f657610086565b3661008657005b600080fd5b34801561009757600080fd5b506100a06101c5565b005b3480156100ae57600080fd5b506100c960048036038101906100c49190610ac0565b6102fd565b6040516100d69190610b08565b60405180910390f35b3480156100eb57600080fd5b506100f4610392565b005b34801561010257600080fd5b5061010b61041a565b6040516101189190610b64565b60405180910390f35b34801561012d57600080fd5b5061014860048036038101906101439190610bf3565b610443565b005b34801561015657600080fd5b50610171600480360381019061016c9190610ac0565b610570565b005b34801561017f57600080fd5b5061019a60048036038101906101959190610ac0565b610710565b005b3480156101a857600080fd5b506101c360048036038101906101be9190610c5f565b61089f565b005b6101cd610997565b73ffffffffffffffffffffffffffffffffffffffff166101eb61041a565b73ffffffffffffffffffffffffffffffffffffffff1614610241576040517f08c379a000000000000000000000000000000000000000000000000000000000815260040161023890610ce9565b60405180910390fd5b6000479050600061025061041a565b73ffffffffffffffffffffffffffffffffffffffff168260405161027390610d3a565b60006040518083038185875af1925050503d80600081146102b0576040519150601f19603f3d011682016040523d82523d6000602084013e6102b5565b606091505b50509050806102f9576040517f08c379a00000000000000000000000000000000000000000000000000000000081526004016102f090610d9b565b60405180910390fd5b5050565b60008073ffffffffffffffffffffffffffffffffffffffff1660016000846fffffffffffffffffffffffffffffffff19166fffffffffffffffffffffffffffffffff1916815260200190815260200160002060000160009054906101000a900473ffffffffffffffffffffffffffffffffffffffff1673ffffffffffffffffffffffffffffffffffffffff1614159050919050565b61039a610997565b73ffffffffffffffffffffffffffffffffffffffff166103b861041a565b73ffffffffffffffffffffffffffffffffffffffff161461040e576040517f08c379a000000000000000000000000000000000000000000000000000000000815260040161040590610ce9565b60405180910390fd5b610418600061099f565b565b60008060009054906101000a900473ffffffffffffffffffffffffffffffffffffffff16905090565b61044b610997565b73ffffffffffffffffffffffffffffffffffffffff1661046961041a565b73ffffffffffffffffffffffffffffffffffffffff16146104bf576040517f08c379a00000000000000000000000000000000000000000000000000000000081526004016104b690610ce9565b60405180910390fd5b60008273ffffffffffffffffffffffffffffffffffffffff16826040516104e590610d3a565b60006040518083038185875af1925050503d8060008114610522576040519150601f19603f3d011682016040523d82523d6000602084013e610527565b606091505b505090508061056b576040517f08c379a000000000000000000000000000000000000000000000000000000000815260040161056290610e07565b60405180910390fd5b505050565b600073ffffffffffffffffffffffffffffffffffffffff1660016000836fffffffffffffffffffffffffffffffff19166fffffffffffffffffffffffffffffffff1916815260200190815260200160002060000160009054906101000a900473ffffffffffffffffffffffffffffffffffffffff1673ffffffffffffffffffffffffffffffffffffffff161461063b576040517f08c379a000000000000000000000000000000000000000000000000000000000815260040161063290610e73565b60405180910390fd5b3360016000836fffffffffffffffffffffffffffffffff19166fffffffffffffffffffffffffffffffff1916815260200190815260200160002060000160006101000a81548173ffffffffffffffffffffffffffffffffffffffff021916908373ffffffffffffffffffffffffffffffffffffffff1602179055503373ffffffffffffffffffffffffffffffffffffffff16816fffffffffffffffffffffffffffffffff19167f3996f03cb3d86f58dddfb979fe7f452a7b40a19b8e6a3e30bc5da0eef35dc41e60405160405180910390a350565b3373ffffffffffffffffffffffffffffffffffffffff1660016000836fffffffffffffffffffffffffffffffff19166fffffffffffffffffffffffffffffffff1916815260200190815260200160002060000160009054906101000a900473ffffffffffffffffffffffffffffffffffffffff1673ffffffffffffffffffffffffffffffffffffffff16146107da576040517f08c379a00000000000000000000000000000000000000000000000000000000081526004016107d190610edf565b60405180910390fd5b60016000826fffffffffffffffffffffffffffffffff19166fffffffffffffffffffffffffffffffff19168152602001908152602001600020600080820160006101000a81549073ffffffffffffffffffffffffffffffffffffffff0219169055600182016000905550503373ffffffffffffffffffffffffffffffffffffffff16816fffffffffffffffffffffffffffffffff19167f9be99d9247dddc1ff2bdc90216e10d715ec32dfd804f39bd02b199a711f7a74260405160405180910390a350565b6108a7610997565b73ffffffffffffffffffffffffffffffffffffffff166108c561041a565b73ffffffffffffffffffffffffffffffffffffffff161461091b576040517f08c379a000000000000000000000000000000000000000000000000000000000815260040161091290610ce9565b60405180910390fd5b600073ffffffffffffffffffffffffffffffffffffffff168173ffffffffffffffffffffffffffffffffffffffff16141561098b576040517f08c379a000000000000000000000000000000000000000000000000000000000815260040161098290610f71565b60405180910390fd5b6109948161099f565b50565b600033905090565b60008060009054906101000a900473ffffffffffffffffffffffffffffffffffffffff169050816000806101000a81548173ffffffffffffffffffffffffffffffffffffffff021916908373ffffffffffffffffffffffffffffffffffffffff1602179055508173ffffffffffffffffffffffffffffffffffffffff168173ffffffffffffffffffffffffffffffffffffffff167f8be0079c531659141344cd1fd0a4f28419497f9722a3daafe3b4186f6b6457e060405160405180910390a35050565b600080fd5b60007fffffffffffffffffffffffffffffffff0000000000000000000000000000000082169050919050565b610a9d81610a68565b8114610aa857600080fd5b50565b600081359050610aba81610a94565b92915050565b600060208284031215610ad657610ad5610a63565b5b6000610ae484828501610aab565b91505092915050565b60008115159050919050565b610b0281610aed565b82525050565b6000602082019050610b1d6000830184610af9565b92915050565b600073ffffffffffffffffffffffffffffffffffffffff82169050919050565b6000610b4e82610b23565b9050919050565b610b5e81610b43565b82525050565b6000602082019050610b796000830184610b55565b92915050565b6000610b8a82610b23565b9050919050565b610b9a81610b7f565b8114610ba557600080fd5b50565b600081359050610bb781610b91565b92915050565b6000819050919050565b610bd081610bbd565b8114610bdb57600080fd5b50565b600081359050610bed81610bc7565b92915050565b60008060408385031215610c0a57610c09610a63565b5b6000610c1885828601610ba8565b9250506020610c2985828601610bde565b9150509250929050565b610c3c81610b43565b8114610c4757600080fd5b50565b600081359050610c5981610c33565b92915050565b600060208284031215610c7557610c74610a63565b5b6000610c8384828501610c4a565b91505092915050565b600082825260208201905092915050565b7f4f776e61626c653a2063616c6c6572206973206e6f7420746865206f776e6572600082015250565b6000610cd3602083610c8c565b9150610cde82610c9d565b602082019050919050565b60006020820190508181036000830152610d0281610cc6565b9050919050565b600081905092915050565b50565b6000610d24600083610d09565b9150610d2f82610d14565b600082019050919050565b6000610d4582610d17565b9150819050919050565b7f4661696c656420746f2077697468647261770000000000000000000000000000600082015250565b6000610d85601283610c8c565b9150610d9082610d4f565b602082019050919050565b60006020820190508181036000830152610db481610d78565b9050919050565b7f4661696c656420746f207472616e736665720000000000000000000000000000600082015250565b6000610df1601283610c8c565b9150610dfc82610dbb565b602082019050919050565b60006020820190508181036000830152610e2081610de4565b9050919050565b7f4c6f636b657220697320616c726561647920636c6f7365640000000000000000600082015250565b6000610e5d601883610c8c565b9150610e6882610e27565b602082019050919050565b60006020820190508181036000830152610e8c81610e50565b9050919050565b7f4c6f636b657220646f65736e27742062656c6f6e6720746f2061646472657373600082015250565b6000610ec9602083610c8c565b9150610ed482610e93565b602082019050919050565b60006020820190508181036000830152610ef881610ebc565b9050919050565b7f4f776e61626c653a206e6577206f776e657220697320746865207a65726f206160008201527f6464726573730000000000000000000000000000000000000000000000000000602082015250565b6000610f5b602683610c8c565b9150610f6682610eff565b604082019050919050565b60006020820190508181036000830152610f8a81610f4e565b905091905056fea26469706673582212206d6a8fd0ccf307c1c3d21e8308ea05175cc0ebf995b49bef22a8de483206489b64736f6c634300080a0033",
  "immutableReferences": {},
  "source": "// SPDX-License-Identifier: MIT\r\npragma solidity >=0.8.10 <0.9.0;\r\n\r\nimport \"@openzeppelin/contracts/access/Ownable.sol\";\r\nimport \"./LockerManagerV2Core.sol\";\r\n\r\n//contract defining the owner functions\r\ncontract LockerManagerV2Payable is Ownable, LockerManagerV2Core {\r\n\r\n    // Function to withdraw all Ether from this contract\r\n    function withdraw() public onlyOwner {\r\n        // get the amount of Ether stored in this contract\r\n        uint amount = address(this).balance;\r\n\r\n        // send all Ether to owner\r\n        // Owner can receive Ether since the address of owner is payable\r\n        (bool success,) = owner().call{value : amount}(\"\");\r\n        require(success, \"Failed to withdraw\");\r\n    }\r\n\r\n    // Function to transfer Ether from this contract to address from input\r\n    function transfer(address payable _to, uint _amount) public onlyOwner {\r\n        // \"to\" is payable\r\n        (bool success,) = _to.call{value : _amount}(\"\");\r\n        require(success, \"Failed to transfer\");\r\n    }\r\n\r\n    //this contract allows payments\r\n    receive() external override payable {\r\n    }\r\n}",
  "sourcePath": "D:\\git\\cas-blockchain\\contracts\\LockerManagerV2Payable.sol",
  "compiler": {
    "name": "solc",
    "version": "0.8.10+commit.fc410830.Emscripten.clang"
  },
  "schemaVersion": "3.4.3",
  "updatedAt": "2021-12-06T23:03:28.780Z",
  "devdoc": {
    "kind": "dev",
    "methods": {
      "owner()": {
        "details": "Returns the address of the current owner."
      },
      "renounceOwnership()": {
        "details": "Leaves the contract without owner. It will not be possible to call `onlyOwner` functions anymore. Can only be called by the current owner. NOTE: Renouncing ownership will leave the contract without an owner, thereby removing any functionality that is only available to the owner."
      },
      "transferOwnership(address)": {
        "details": "Transfers ownership of the contract to a new account (`newOwner`). Can only be called by the current owner."
      }
    },
    "version": 1
  },
  "userdoc": {
    "kind": "user",
    "methods": {},
    "version": 1
  }
}