{
  "contractName": "LockerManagerV1",
  "abi": [
    {
      "anonymous": false,
      "inputs": [
        {
          "indexed": true,
          "internalType": "bytes",
          "name": "_lockerId",
          "type": "bytes"
        },
        {
          "indexed": true,
          "internalType": "address",
          "name": "_owner",
          "type": "address"
        }
      ],
      "name": "lockerClosed",
      "type": "event"
    },
    {
      "anonymous": false,
      "inputs": [
        {
          "indexed": true,
          "internalType": "bytes",
          "name": "_lockerId",
          "type": "bytes"
        },
        {
          "indexed": true,
          "internalType": "address",
          "name": "_owner",
          "type": "address"
        }
      ],
      "name": "lockerOpened",
      "type": "event"
    },
    {
      "inputs": [
        {
          "internalType": "string",
          "name": "_id",
          "type": "string"
        }
      ],
      "name": "closeLocker",
      "outputs": [],
      "stateMutability": "nonpayable",
      "type": "function"
    },
    {
      "inputs": [
        {
          "internalType": "string",
          "name": "_id",
          "type": "string"
        }
      ],
      "name": "openLocker",
      "outputs": [],
      "stateMutability": "nonpayable",
      "type": "function"
    },
    {
      "inputs": [
        {
          "internalType": "string",
          "name": "_id",
          "type": "string"
        }
      ],
      "name": "isLockerClosed",
      "outputs": [
        {
          "internalType": "bool",
          "name": "",
          "type": "bool"
        }
      ],
      "stateMutability": "view",
      "type": "function",
      "constant": true
    }
  ],
  "bytecode": "0x608060405234801561001057600080fd5b50610854806100206000396000f3fe608060405234801561001057600080fd5b50600436106100415760003560e01c8063359fa1f514610046578063b22f556614610062578063d989e43314610092575b600080fd5b610060600480360381019061005b919061056c565b6100ae565b005b61007c6004803603810190610077919061056c565b610233565b60405161008991906105d0565b60405180910390f35b6100ac60048036038101906100a7919061056c565b6102aa565b005b600073ffffffffffffffffffffffffffffffffffffffff166000826040516100d69190610665565b908152602001604051809103902060009054906101000a900473ffffffffffffffffffffffffffffffffffffffff1673ffffffffffffffffffffffffffffffffffffffff161461015b576040517f08c379a0000000000000000000000000000000000000000000000000000000008152600401610152906106d9565b60405180910390fd5b3360008260405161016c9190610665565b908152602001604051809103902060006101000a81548173ffffffffffffffffffffffffffffffffffffffff021916908373ffffffffffffffffffffffffffffffffffffffff1602179055503373ffffffffffffffffffffffffffffffffffffffff16816040516020016101e09190610732565b6040516020818303038152906040526040516101fc919061079b565b60405180910390207ffd3362a131c5ca031836fb4064900f2b71021c330339ae4367191d7b5702589460405160405180910390a350565b60008073ffffffffffffffffffffffffffffffffffffffff1660008360405161025c9190610665565b908152602001604051809103902060009054906101000a900473ffffffffffffffffffffffffffffffffffffffff1673ffffffffffffffffffffffffffffffffffffffff1614159050919050565b3373ffffffffffffffffffffffffffffffffffffffff166000826040516102d19190610665565b908152602001604051809103902060009054906101000a900473ffffffffffffffffffffffffffffffffffffffff1673ffffffffffffffffffffffffffffffffffffffff1614610356576040517f08c379a000000000000000000000000000000000000000000000000000000000815260040161034d906107fe565b60405180910390fd5b6000816040516103669190610665565b908152602001604051809103902060006101000a81549073ffffffffffffffffffffffffffffffffffffffff02191690553373ffffffffffffffffffffffffffffffffffffffff16816040516020016103bf9190610732565b6040516020818303038152906040526040516103db919061079b565b60405180910390207ff74a63a749b4332566edf1dc1c769c003208bfba387f2d69989b6d6bef5a6fb860405160405180910390a350565b6000604051905090565b600080fd5b600080fd5b600080fd5b600080fd5b6000601f19601f8301169050919050565b7f4e487b7100000000000000000000000000000000000000000000000000000000600052604160045260246000fd5b61047982610430565b810181811067ffffffffffffffff8211171561049857610497610441565b5b80604052505050565b60006104ab610412565b90506104b78282610470565b919050565b600067ffffffffffffffff8211156104d7576104d6610441565b5b6104e082610430565b9050602081019050919050565b82818337600083830152505050565b600061050f61050a846104bc565b6104a1565b90508281526020810184848401111561052b5761052a61042b565b5b6105368482856104ed565b509392505050565b600082601f83011261055357610552610426565b5b81356105638482602086016104fc565b91505092915050565b6000602082840312156105825761058161041c565b5b600082013567ffffffffffffffff8111156105a05761059f610421565b5b6105ac8482850161053e565b91505092915050565b60008115159050919050565b6105ca816105b5565b82525050565b60006020820190506105e560008301846105c1565b92915050565b600081519050919050565b600081905092915050565b60005b8381101561061f578082015181840152602081019050610604565b8381111561062e576000848401525b50505050565b600061063f826105eb565b61064981856105f6565b9350610659818560208601610601565b80840191505092915050565b60006106718284610634565b915081905092915050565b600082825260208201905092915050565b7f4c6f636b657220697320616c726561647920636c6f7365640000000000000000600082015250565b60006106c360188361067c565b91506106ce8261068d565b602082019050919050565b600060208201905081810360008301526106f2816106b6565b9050919050565b6000610704826105eb565b61070e818561067c565b935061071e818560208601610601565b61072781610430565b840191505092915050565b6000602082019050818103600083015261074c81846106f9565b905092915050565b600081519050919050565b600081905092915050565b600061077582610754565b61077f818561075f565b935061078f818560208601610601565b80840191505092915050565b60006107a7828461076a565b915081905092915050565b7f4c6f636b657220646f65736e27742062656c6f6e6720746f2061646472657373600082015250565b60006107e860208361067c565b91506107f3826107b2565b602082019050919050565b60006020820190508181036000830152610817816107db565b905091905056fea2646970667358221220db99cbaae55374522ed4f4efd25d8e64bd395e2dc09a981c855fed6f29953fc964736f6c634300080a0033",
  "immutableReferences": {},
  "source": "pragma solidity >=0.8.10 <0.9.0;\r\n\r\ncontract LockerManagerV1 {\r\n    mapping(string => address) lockerAddressMap;\r\n\r\n    event lockerOpened(bytes indexed _lockerId, address indexed _owner);\r\n    event lockerClosed(bytes indexed _lockerId, address indexed _owner);\r\n\r\n\r\n    function closeLocker(string memory _id) public {\r\n        require(lockerAddressMap[_id] == address(0), \"Locker is already closed\");\r\n        lockerAddressMap[_id] = msg.sender;\r\n        emit lockerClosed(abi.encode(_id), msg.sender);\r\n    }\r\n\r\n    function openLocker(string memory _id) public {\r\n        require(lockerAddressMap[_id] == msg.sender, \"Locker doesn't belong to address\");\r\n        delete lockerAddressMap[_id];\r\n        emit lockerOpened(abi.encode(_id), msg.sender);\r\n    }\r\n\r\n    function isLockerClosed(string memory _id) view public returns (bool){\r\n        return lockerAddressMap[_id] != address(0);\r\n    }\r\n}",
  "sourcePath": "D:\\git\\cas-blockchain\\contracts\\LockerManagerV1.sol",
  "compiler": {
    "name": "solc",
    "version": "0.8.10+commit.fc410830.Emscripten.clang"
  },
  "schemaVersion": "3.4.3",
  "updatedAt": "2021-11-28T21:18:35.274Z",
  "networkType": "ethereum",
  "devdoc": {
    "kind": "dev",
    "methods": {},
    "version": 1
  },
  "userdoc": {
    "kind": "user",
    "methods": {},
    "version": 1
  }
}