{
  "contractName": "LockerManagerV2Core",
  "abi": [
    {
      "inputs": [],
      "name": "PaymentNotAccepted",
      "type": "error"
    },
    {
      "anonymous": false,
      "inputs": [
        {
          "indexed": true,
          "internalType": "bytes16",
          "name": "lockerId",
          "type": "bytes16"
        },
        {
          "indexed": true,
          "internalType": "address",
          "name": "closer",
          "type": "address"
        }
      ],
      "name": "lockerClosed",
      "type": "event"
    },
    {
      "anonymous": false,
      "inputs": [
        {
          "indexed": true,
          "internalType": "bytes16",
          "name": "lockerId",
          "type": "bytes16"
        },
        {
          "indexed": true,
          "internalType": "address",
          "name": "opener",
          "type": "address"
        }
      ],
      "name": "lockerOpened",
      "type": "event"
    },
    {
      "stateMutability": "payable",
      "type": "receive"
    },
    {
      "inputs": [
        {
          "internalType": "bytes16",
          "name": "_id",
          "type": "bytes16"
        }
      ],
      "name": "closeLocker",
      "outputs": [],
      "stateMutability": "nonpayable",
      "type": "function"
    },
    {
      "inputs": [
        {
          "internalType": "bytes16",
          "name": "_id",
          "type": "bytes16"
        }
      ],
      "name": "openLocker",
      "outputs": [],
      "stateMutability": "nonpayable",
      "type": "function"
    },
    {
      "inputs": [
        {
          "internalType": "bytes16",
          "name": "_id",
          "type": "bytes16"
        }
      ],
      "name": "isLockerClosed",
      "outputs": [
        {
          "internalType": "bool",
          "name": "",
          "type": "bool"
        }
      ],
      "stateMutability": "view",
      "type": "function"
    }
  ],
  "bytecode": "0x608060405234801561001057600080fd5b506106a1806100206000396000f3fe6080604052600436106100385760003560e01c80635e3a836e14610074578063ad79f127146100b1578063db29c699146100da5761006f565b3661006f576040517ff972ed7200000000000000000000000000000000000000000000000000000000815260040160405180910390fd5b600080fd5b34801561008057600080fd5b5061009b6004803603810190610096919061051f565b610103565b6040516100a89190610567565b60405180910390f35b3480156100bd57600080fd5b506100d860048036038101906100d3919061051f565b610197565b005b3480156100e657600080fd5b5061010160048036038101906100fc919061051f565b610335565b005b60008073ffffffffffffffffffffffffffffffffffffffff16600080846fffffffffffffffffffffffffffffffff19166fffffffffffffffffffffffffffffffff1916815260200190815260200160002060000160009054906101000a900473ffffffffffffffffffffffffffffffffffffffff1673ffffffffffffffffffffffffffffffffffffffff1614159050919050565b600073ffffffffffffffffffffffffffffffffffffffff16600080836fffffffffffffffffffffffffffffffff19166fffffffffffffffffffffffffffffffff1916815260200190815260200160002060000160009054906101000a900473ffffffffffffffffffffffffffffffffffffffff1673ffffffffffffffffffffffffffffffffffffffff1614610261576040517f08c379a0000000000000000000000000000000000000000000000000000000008152600401610258906105df565b60405180910390fd5b33600080836fffffffffffffffffffffffffffffffff19166fffffffffffffffffffffffffffffffff1916815260200190815260200160002060000160006101000a81548173ffffffffffffffffffffffffffffffffffffffff021916908373ffffffffffffffffffffffffffffffffffffffff1602179055503373ffffffffffffffffffffffffffffffffffffffff16816fffffffffffffffffffffffffffffffff19167f3996f03cb3d86f58dddfb979fe7f452a7b40a19b8e6a3e30bc5da0eef35dc41e60405160405180910390a350565b3373ffffffffffffffffffffffffffffffffffffffff16600080836fffffffffffffffffffffffffffffffff19166fffffffffffffffffffffffffffffffff1916815260200190815260200160002060000160009054906101000a900473ffffffffffffffffffffffffffffffffffffffff1673ffffffffffffffffffffffffffffffffffffffff16146103fe576040517f08c379a00000000000000000000000000000000000000000000000000000000081526004016103f59061064b565b60405180910390fd5b600080826fffffffffffffffffffffffffffffffff19166fffffffffffffffffffffffffffffffff19168152602001908152602001600020600080820160006101000a81549073ffffffffffffffffffffffffffffffffffffffff0219169055600182016000905550503373ffffffffffffffffffffffffffffffffffffffff16816fffffffffffffffffffffffffffffffff19167f9be99d9247dddc1ff2bdc90216e10d715ec32dfd804f39bd02b199a711f7a74260405160405180910390a350565b600080fd5b60007fffffffffffffffffffffffffffffffff0000000000000000000000000000000082169050919050565b6104fc816104c7565b811461050757600080fd5b50565b600081359050610519816104f3565b92915050565b600060208284031215610535576105346104c2565b5b60006105438482850161050a565b91505092915050565b60008115159050919050565b6105618161054c565b82525050565b600060208201905061057c6000830184610558565b92915050565b600082825260208201905092915050565b7f4c6f636b657220697320616c726561647920636c6f7365640000000000000000600082015250565b60006105c9601883610582565b91506105d482610593565b602082019050919050565b600060208201905081810360008301526105f8816105bc565b9050919050565b7f4c6f636b657220646f65736e27742062656c6f6e6720746f2061646472657373600082015250565b6000610635602083610582565b9150610640826105ff565b602082019050919050565b6000602082019050818103600083015261066481610628565b905091905056fea2646970667358221220c5f7156cf24aa949701d6a9c902386d16a2502f55642956af2a85c3f59e4879d64736f6c634300080a0033",
  "immutableReferences": {},
  "source": "// SPDX-License-Identifier: MIT\r\npragma solidity >=0.8.10 <0.9.0;\r\n\r\nimport {locker, PaymentNotAccepted} from \"./LockerManagerV2Library.sol\";\r\n\r\n//contract to manage locker states\r\ncontract LockerManagerV2Core {\r\n    //lockerState: map of lockerId -> locker struct\r\n    mapping(bytes16 => locker) lockerState;\r\n    //event emitted when a locker is opened\r\n    event lockerOpened(bytes16 indexed lockerId, address indexed opener);\r\n    //event emitted when a locker is closed\r\n    event lockerClosed(bytes16 indexed lockerId, address indexed closer);\r\n\r\n    //function for closing lockers by id\r\n    function closeLocker(bytes16 _id) public virtual {\r\n        //the locker must not be already locked\r\n        require(lockerState[_id].allowedOpener == address(0), \"Locker is already closed\");\r\n        lockerState[_id].allowedOpener = msg.sender;\r\n        emit lockerClosed(_id, msg.sender);\r\n    }\r\n\r\n    //function for opening lockers by id\r\n    function openLocker(bytes16 _id) public virtual {\r\n        //the locker must be locked by the same address that is trying to open it\r\n        require(lockerState[_id].allowedOpener == msg.sender, \"Locker doesn't belong to address\");\r\n        delete lockerState[_id];\r\n        emit lockerOpened(_id, msg.sender);\r\n    }\r\n\r\n    //checks the whether a locker is closed\r\n    function isLockerClosed(bytes16 _id) view public virtual returns (bool){\r\n        return lockerState[_id].allowedOpener != address(0);\r\n    }\r\n\r\n    //this contract doesn't allow payments\r\n    receive() external virtual payable {\r\n        revert PaymentNotAccepted();\r\n    }\r\n}",
  "sourcePath": "D:\\git\\cas-blockchain\\contracts\\LockerManagerV2Core.sol",
  "compiler": {
    "name": "solc",
    "version": "0.8.10+commit.fc410830.Emscripten.clang"
  },
  "schemaVersion": "3.4.3",
  "updatedAt": "2021-12-06T23:03:28.766Z",
  "devdoc": {
    "kind": "dev",
    "methods": {},
    "version": 1
  },
  "userdoc": {
    "kind": "user",
    "methods": {},
    "version": 1
  }
}